:100000000C942A000C943F000C943F000C943F0089
:100010000C943F000C943F000C943F000C943F0064
:100020000C943F000C943F000C943F000C943F0054
:100030000C943F000C943F000C943F000C943F0044
:100040000C943F000C943F000C943F000C943F0034
:100050000C943F0011241FBECFE5D8E0DEBFCDBF1A
:1000600010E0A0E6B0E0ECE2F2E002C005900D92F4
:10007000A038B107D9F70E94A2000C9414010C9487
:10008000000085BB82B38F7E82BB82B38B7F82BB35
:1000900082B3886082BB000082B3877F82BB8DEE13
:1000A00092E00197F1F700C00000089585BB82B38C
:1000B000806182BB82B38B7F82BB82B3886082BB4C
:1000C000000082B3877F82BB89EF90E00197F1F750
:1000D00000C0000008958FEF84BB81B3886081BBAE
:1000E00081B3806181BB81B3846081BB87E893E188
:1000F0000197F1F700C0000088E30E9441008CE006
:100100000E94410086E00E94410081E00E9441007F
:1001100080E80E94410008950F931F93CF93DF93CF
:100120008C01C0E0D0E003C00E9456002196F80187
:10013000EC0FFD1F80818111F7CFDF91CF911F91CF
:100140000F91089587B38E7F87BB87E690E00E946A
:1001500005010E946B0081E00E94410088E30E943B
:10016000410086B3282F2170C22F90E0D92F80FF45
:1001700025C086E60E940E0180E690E00E948C0079
:1001800080EC0E9441008FE39CE90197F1F700C0E9
:1001900000008FE690E00E948C0084E790E00E94CF
:1001A0008C009FEF2DEE82E0915020408040E1F7DF
:1001B00000C0000081E00E944100D0CFCD2B71F63D
:1001C0008EE60E940E0180E690E00E948C0080EC9A
:1001D0000E9441008FE39CE90197F1F700C0000005
:1001E00086E790E00E948C0084E790E00E948C00FB
:1001F0009FEF2DEE82E0915020408040E1F700C05B
:10020000000081E00E944100A9CF2AB128612AB9EB
:1002100020B5266820BD89B990BD08955D9BFECFAD
:0C0220008CB95E9BFECF0895F894FFCFD0
:10022C00204E6F74696669636174696F6E3A00463B
:10023C00697265002000416C6C205361766500008A
:00000001FF
