:100000000C942A000C9434000C9434000C943400AA
:100010000C9434000C9434000C9434000C94340090
:100020000C9434000C9434000C9434000C94340080
:100030000C9434000C9434000C9434000C94340070
:100040000C9434000C9434000C9434000C94340060
:100050000C94340011241FBECFE5D8E0DEBFCDBF25
:100060000E9461000C94C1000C9400009AB391604E
:100070009ABB9AB392609ABB662321F09BB39160BE
:100080009BBB03C09BB392609BBB99E693BF97B3A6
:10009000986097BB2FEF829FC001112464E670E047
:1000A0000E9499006CBF08952AB128612AB920B531
:1000B000266820BD89B990BD08955F9BFECF8CB1A5
:1000C000089587E690E00E94540084B3806484BB66
:1000D00084B3806284BB0E945D00863609F585B3D7
:1000E000806485BB85B38F7D85BB61E084E60E941B
:1000F00036002FEF89E698E1215080409040E1F7EB
:1001000000C0000060E080E00E9436002FEF89E62A
:1001100098E1215080409040E1F700C00000DBCF23
:100120008E36C9F685B3806285BB85B38F7B85BB70
:10013000D2CF97FB072E16F4009407D077FD09D095
:100140000E94AD0007FC05D03EF4909581959F4F2D
:100150000895709561957F4F0895AA1BBB1B51E1CF
:1001600007C0AA1FBB1FA617B70710F0A61BB70B27
:10017000881F991F5A95A9F780959095BC01CD01CC
:060180000895F894FFCF82
:00000001FF
